:100000000C9434000C9451000C9451000C94510049
:100010000C9451000C9451000C9451000C9451001C
:100020000C9451000C9451000C9451000C9451000C
:100030000C9451000C9451000C9451000C945100FC
:100040000C9492000C9451000C9451000C945100AB
:100050000C9451000C9451000C9451000C945100DC
:100060000C9451000C94510011241FBECFEFD4E02A
:10007000DEBFCDBF11E0A0E0B1E0EAE8F1E002C0F0
:1000800005900D92A030B107D9F711E0A0E0B1E0E2
:1000900001C01D92A530B107E1F70E9471000C94D8
:1000A000C3000C9400008AB18FEF8AB99BB18BB961
:1000B0003898409A0895F89485B5856085BDEEE638
:1000C000F0E080818160808378940895F894909125
:1000D0000301892390910301982790930301789459
:1000E00008958AB18FEF8AB99BB18BB93898409A3D
:1000F000F89485B5856085BD80916E0081608093A0
:100100006E007894F89490910301917080910301AE
:1001100089278093030178949923A1F38BB180956B
:100120008BB9F0CF1F920F920FB60F9211242F931D
:100130003F938F939F9386EF86BD3091040126B144
:1001400020952327809102018223809580930201CC
:100150009091010192239827909301018223892392
:10016000982F932790930401209103019823922BB9
:10017000909303019F918F913F912F910F900FBE0C
:0A0180000F901F901895F894FFCF20
:00000001FF
