:100000000C9434000C9451000C9451000C94510049
:100010000C9451000C9451000C9451000C9451001C
:100020000C9451000C9451000C9451000C949501C7
:100030000C9451000C9451000C9451000C945100FC
:100040000C9464010C9451000C9451000C945100D8
:100050000C9451000C9451000C9451000C945100DC
:100060000C9451000C94510011241FBECFEFD4E02A
:10007000DEBFCDBF11E0A0E0B1E0E6E5F3E002C0F5
:1000800005900D92A030B107D9F711E0A0E0B1E0E2
:1000900001C01D92A630B107E1F70E9412010C9435
:1000A000A9010C9400008AB18FEF8AB99BB18BB97A
:1000B0003898409A0895F89485B5856085BDEEE638
:1000C000F0E080818160808378940895F894E1E87D
:1000D000F0E080818360808388E09DE390938900D5
:1000E00080938800808188608083EFE6F0E08081E3
:1000F0008260808378940895E1E8F0E08081887FD1
:10010000808308952AEF30E004C0F9013197F1F7B8
:10011000019718161906CCF30895F89490910401EC
:10012000892390910401982790930401789408956D
:1001300081E08BB92EE130E04AEF50E003C0CA0104
:100140000197F1F7215030408FEF2F3F3807B9F773
:1001500021E04AEF50E019C0220F2BB98EE190E068
:1001600003C0FA013197F1F701973FEF8F3F9307F3
:10017000C1F7F8949091040191708091040189274E
:100180008093040178949923F9F427FFE5CF19C0EF
:1001900026952BB98EE190E003C0FA013197F1F773
:1001A00001973FEF8F3F9307C1F7F89490910401B7
:1001B0009170809104018927809304017894992398
:1001C00019F4223028F7E1CF08958AEA8BB92EE698
:1001D00030E04AEF50E003C0CA010197F1F7215027
:1001E00030408FEF2F3F3807B9F72AEA4AEF50E047
:1001F00020952BB98EE690E003C0FA013197F1F714
:1002000001973FEF8F3F9307C1F7F8949091040156
:100210009170809104018927809304017894992337
:1002200039F30895CF93DF938AB18FEF8AB99BB1E9
:100230008BB93898409AF89485B5856085BD8091D2
:100240006E00816080936E00789428EE33E04AEF70
:1002500050E003C0CA010197F1F7215030408FEF01
:100260002F3F3807B9F7C8E0DDE30E9498000E94ED
:10027000E5001BB810920001F89480918100836022
:1002800080938100D0938900C09388008091810081
:1002900088608093810080916F00826080936F00FE
:1002A0007894F894909104019170809104018927C9
:1002B0008093040178949923A1F380918100887F31
:1002C000809381001BB8D1CF1F920F920FB60F926F
:1002D00011242F933F938F939F9386EF86BD309188
:1002E000050126B120952327809103018223809563
:1002F0008093030190910201922398279093020129
:1003000082238923982F932790930501209104013C
:100310009823922B909304019F918F913F912F915D
:100320000F900FBE0F901F9018951F920F920FB64F
:100330000F9211248F93809100018F5F80930001B1
:10034000809100018BB98F910F900FBE0F901F907D
:060350001895F894FFCFA0
:00000001FF
