:100000000C9434000C9451000C9451000C94510049
:100010000C94AF010C9451000C9451000C945100BD
:100020000C9451000C9451000C9451000C94A001BC
:100030000C9451000C9451000C9451000C945100FC
:100040000C946F010C9451000C9451000C945100CD
:100050000C9451000C9451000C9451000C945100DC
:100060000C9451000C94510011241FBECFEFD4E02A
:10007000DEBFCDBF11E0A0E0B1E0ECE9F3E002C0EB
:1000800005900D92A030B107D9F711E0A0E0B1E0E2
:1000900001C01D92A930B107E1F70E94F5000C9450
:1000A000CC010C9400008AB18FEF8AB99BB18BB957
:1000B0003898409A0895F894EFE6F0E080818260E5
:1000C0008083E1E8F0E080818860808378940895FF
:1000D000F89485B5856085BDEEE6F0E080818160AD
:1000E000808378940895F894909389008093880091
:1000F000E1E8F0E080818360808378940895F8944B
:10010000E1E8F0E080818C7F80831092850010927E
:10011000840078940895F894909106018923909131
:100120000601982790930601789408958BB18095E5
:100130008BB90895F89488E893E129E130E0F9015A
:100140003197F1F70197D9F7809168008260809329
:10015000680080916C00816080936C0083B7817F20
:10016000846083BF789483B7816083BF889583B7A9
:100170008E7F83BF0895813081F0813028F08230F6
:1001800091F0833031F51FC081E0809307018093A7
:100190000501F89485ED91E00BC08FE08BB9F894E0
:1001A00085E39CE005C08FEF8BB9F89487EB96E070
:1001B0009093890080938800809181008360809370
:1001C0008100789408951BB80E949A0081E0809382
:1001D00000010895E8E6F0E0808182608083ECE62B
:1001E000F0E080818160808308951F938AB18FEF52
:1001F0008AB99BB18BB93898409AF89485B58560D7
:1002000085BD80916E00816080936E007894F89433
:1002100080916F00826080936F0080918100886080
:100220008093810078941092040180E00E94BB00CA
:1002300011E080910001882359F1809104018130FF
:10024000E1F0813028F08230C1F08330F9F419C038
:100250009091050180910701992311F0880F01C049
:1002600086958093070180910701813011F08038D5
:1002700031F491279093050102C08BB180958BB921
:1002800005C01092040180E00E94BB0010920001A2
:10029000F8949091060191708091060189278093CE
:1002A00006017894992329F2F894809181008C7F3B
:1002B00080938100109285001092840078941092AF
:1002C0000001809104018F5F80930401843010F05D
:1002D00010920401809104010E94BB00AACF1F92DA
:1002E0000F920FB60F9211242F933F938F939F93EA
:1002F00086EF86BD3091080126B120952327809195
:10030000030182238095809303019091020192233F
:1003100098279093020182238923982F9327909303
:100320000801209106019823922B909306019F913A
:100330008F913F912F910F900FBE0F901F901895A6
:100340001F920F920FB60F9211248F9381E080932A
:1003500000018F910F900FBE0F901F9018951F9264
:100360000F920FB60F9211248F93EF93FF9383B7E1
:100370008E7F83BFE8E6F0E080818D7F8083ECE6AE
:10038000F0E080818E7F8083FF91EF918F910F90BD
:0C0390000FBE0F901F901895F894FFCF3F
:00000001FF
