:100000000C9434000C9451000C9451000C94510049
:100010000C9451000C9451000C9451000C9451001C
:100020000C9451000C9451000C9451000C941E013E
:100030000C9451000C9451000C9451000C945100FC
:100040000C9451000C9451000C9451000C945100EC
:100050000C9451000C9451000C9451000C945100DC
:100060000C9451000C94510011241FBECFEFD4E02A
:10007000DEBFCDBF11E0A0E0B1E0E8E6F2E002C0F3
:1000800005900D92A030B107D9F711E0A0E0B1E0E2
:1000900001C01D92A130B107E1F70E94DE000C946F
:1000A00032010C9400008AB18FEF8AB99BB18BB9F1
:1000B0000895F894E1E8F0E080818360808388E02F
:1000C0009DE390938900809388008081886080837D
:1000D000EFE6F0E080818260808378940895E1E823
:1000E000F0E08081887F808308952AEF30E004C0AB
:1000F000F9013197F1F7019718161906CCF3089515
:10010000682F81E08BB92EE130E04AEF50E003C068
:10011000CA010197F1F7215030408FEF2F3F380788
:10012000B9F721E04AEF50E020C0220F2BB98EE151
:1001300090E003C0FA013197F1F701973FEF8F3F4D
:100140009307C1F727FFF1CF0DC026952BB98EE19C
:1001500090E003C0FA013197F1F701973FEF8F3F2D
:100160009307C1F7223088F76150662359F7089545
:10017000482F8AEA8BB92EE630E06AEF70E003C0C0
:10018000CB010197F1F7215030408FEF2F3F380717
:10019000B9F72AEA6AEF70E00EC020952BB98EE617
:1001A00090E003C0FB013197F1F701973FEF8F3FDC
:1001B0009307C1F74150442381F70895CF93DF930C
:1001C0008AB18FEF8AB99BB18BB928EE33E04AEF41
:1001D00050E003C0CA010197F1F7215030408FEF82
:1001E0002F3F3807B9F7C8E0DDE38AE00E948000BE
:1001F00088EC0E94B8001BB810920001F89480911E
:100200008100836080938100D0938900C09388002F
:100210008091810088608093810080916F0082606E
:1002200080936F007894809100018031E0F3809199
:100230008100887F809381001BB8D7CF1F920F92D7
:100240000FB60F9211248F93809100018F5F8093DE
:100250000001809100018BB98F910F900FBE0F901C
:080260001F901895F894FFCFE0
:00000001FF
